:020000040800F2
:10000000288201209D01000891450008453D000817
:100010008D45000815030008414E0008000000004F
:100020000000000000000000000000001146000871
:100030003103000800000000A14500083D4600080B
:10004000B7010008B7010008B7010008B7010008B0
:10005000B7010008B7010008B7010008B7010008A0
:10006000B7010008B7010008B7010008B701000890
:10007000B7010008B7010008B7010008B701000880
:10008000B7010008B7010008B7010008B701000870
:10009000B7010008B7010008B7010008B701000860
:1000A000B7010008B7010008B7010008B701000850
:1000B00025470008B7010008B7010008B70100088C
:1000C000B7010008B7010008B7010008B701000830
:1000D000B7010008294E0008B7010008B701000861
:1000E000B7010008B7010008B7010008B701000810
:1000F000B701000829470008B7010008B701000848
:10010000B7010008B7010008B7010008B7010008EF
:10011000B7010008B7010008B7010008B7010008DF
:10012000B7010008B701000819030008B70100086B
:10013000B7010008B7010008B7010008B7010008BF
:10014000B7010008B7010008B7010008B7010008AF
:10015000B7010008B7010008250300083D4E00085C
:10016000B7010008B7010008B7010008B70100088F
:10017000B7010008B7010008B7010008000000003F
:10018000B7010008B7010008DFF80CD000F0B0F8A4
:1001900000480047FD5A0008288201200648804791
:1001A00006480047FEE7FEE7FEE7FEE7FEE7FEE75C
:1001B000FEE7FEE7FEE7FEE71147000889010008B9
:1001C0002DE9F05F0546002092469B46884606468C
:1001D000814640241BE0284641464746224600F01F
:1001E00077F853465A46C01A914110D31146184623
:1001F000224600F05EF82D1A67EB01084F462246B2
:100200000120002100F055F817EB00094E41201E97
:10021000A4F10104DFDC484631462A464346BDE8E6
:10022000F09F10B5431A934209D28318881803E04F
:1002300010F8011D03F8011D521EF9D210BD40EA4D
:1002400001039B0703D009E008C9121F08C0042A54
:10025000FAD203E011F8013B00F8013B521EF9D23B
:1002600010BDD2B201E000F8012B491EFBD270474D
:100270000022F6E710B513460A4604461946FFF772
:10028000F0FF204610BD30B50B460146002020226D
:10029000012409E021FA02F59D4205D303FA02F593
:1002A000491B04FA02F52844151EA2F10102F1DCF3
:1002B00030BD202A04DB203A00FA02F1002070470A
:1002C0009140C2F1200320FA03F319439040704794
:1002D000202A04DB203A21FA02F00021704721FA9B
:1002E00002F3D040C2F12002914008431946704702
:1002F000064C074D06E0E06840F0010394E8070073
:1003000098471034AC42F6D3FFF742FFBCA6000872
:10031000DCA60008FEE7000040F2DC10C2F200009C
:1003200001F0B2B940F23C20C2F2000001F0ACB9D9
:1003300070470000EFF3108072B600BFFEE70000C8
:100340002DE9F04F83B0814600294FF0000000F006
:10035000C6809046802A00F2C2804CF2C046C2F2AB
:1003600001063078002837D08A464CF24041C9F364
:10037000C620C2F20101085CC9F30221C840C007CF
:100380002AD04CF2000BC2F2010B06F1180707E06D
:1003900057E8000F47E8004101B1F9E785421FD057
:1003A000B56900F071FF0446A842F1D25A46012314
:1003B000D2E84F0FC2E8413F01B1F9E70006E7D1AB
:1003C00030695A46013030610023D2E84F0FC2E84D
:1003D000413F01B1F9E7DBE7012003B0BDE8F08F51
:1003E0004D46EFF30580C0F20805002808BF1FFA4C
:1003F00089F5B8F1000F11D0B8F1080F18D8002016
:10040000CDE90000684651464246FFF70AFF08F072
:10041000070045EA004000F1407050E028462146C0
:100420000022002303B0BDE8F04F00F05BB800BF2E
:10043000701CD0E84F1F4A1CC0E8432F03B1F8E7F7
:100440004FF4E02000EA0146DAF80020DAF8043040
:1004500045EA060000F18070214600F043F8B8B389
:100460004FF60170A8F1080846EA0009B8F1090F33
:100470000AF1080612D300BF37687568484621465E
:100480003A462B4600F02EF830B3A8F1080809F1DF
:100490000109B8F1090F06F10806EDD20020CDE9F7
:1004A0000000684631464246FFF7BBFEFF20C7F614
:1004B000FF5000EA090040EA082040F00070009A6E
:1004C000019B214603B0BDE8F04F00F00BB800BF20
:1004D000002003B0BDE8F08F0020CDE9007503B027
:1004E000BDE8F08F2DE9F0474FF0805707EAD107BC
:1004F0004FF000564CF2C04C06EA92064FF0804591
:100500003843C2F2010C924605EA530530430CF120
:10051000040252E8004F671C42E8007606B1F8E793
:100520004CF2400E40EA050904F03F0004F47077F5
:10053000C2F2010E49EA87370EEB0014984647F0E5
:1005400040660C3454E8007FBB0103D3BFF32F8F08
:10055000002706E007F00047374344E8007505B17F
:10056000F0E77B0100F1D78052E8003F581C42E8D9
:10057000000404B1F8E703F03F0003F4707349EAA4
:1005800083330EEB001443F040630C3454E8007FD7
:10059000BE0103D3BFF32F8F002706E007F000470B
:1005A0001F4344E8007505B1F0E77B0100F1B3801B
:1005B00052E8003F581C42E8000404B1F8E703F099
:1005C0003F0003F4707349EA83330EEB001443F0E9
:1005D00040630C3454E8007FBE0103D3BFF32F8F78
:1005E000002706E007F000471F4344E8007505B107
:1005F000F0E77B0100F18F8052E8003F581C42E891
:10060000000404B1F8E703F03F0003F4707349EA13
:1006100083330EEB001443F040630C3454E8007F46
:10062000BE0103D3BFF32F8F002706E007F000477A
:100630001F4344E8007505B1F0E77B0100F16B80D2
:1006400052E8003F581C42E8000404B1F8E703F008
:100650003F0003F4707349EA83330EEB001443F058
:1006600040630C3454E8007FBE0103D3BFF32F8FE7
:10067000002706E007F000471F4344E8007505B176
:10068000F0E77B0100F1478052E8003F581C42E848
:10069000000404B1F8E703F03F0003F4707349EA83
:1006A00083330EEB001443F040630C3454E8007FB6
:1006B000BE0103D3BFF32F8F002706E007F00047EA
:1006C0001F4344E8007505B1F0E77B0123D452E8ED
:1006D000003F581C42E8000404B1F8E703F03F0073
:1006E00003F4707249EA82320EEB001342F040626A
:1006F00003F10C0454E8007FBD0103D3BFF32F8F37
:10070000002706E007F00047174344E8007303B1F1
:10071000F0E77A012ED587F0044303F0004521F07D
:1007200000410EEB0012000129444EF800102AF09F
:10073000004028F0004128442944C2E9010154E85E
:10074000001F890103D2BFF32F8F002004E044E88B
:10075000003202B1F3E7012060B10CF1080050E86B
:10076000001F4A1C40E8002303B1F8E70120BDE860
:10077000F08700BF0CF10C0050E8001F4A1C40E855
:10078000002303B1F8E70020BDE8F0872DE9F04F22
:1007900081B04CF2C04B4CF240458146C2F2010B95
:1007A0000020C2F2010588468BF80000284680210F
:1007B000FFF75EFD4AF28830C0F6000003381821CA
:1007C0004FF6FF7341F2210210F8037F83EA0723FB
:1007D0001FB25E00002F48BF82EA430633B27700A3
:1007E000002B48BF82EA46073BB27E00002B48BF81
:1007F00082EA470633B27700002B48BF82EA4607F9
:100800003BB27E00002B48BF82EA470633B2770036
:10081000002B48BF82EA46073BB27E00002B48BF50
:1008200082EA470633B27700002B48BF82EA4607C8
:100830004678837887EA06273EB27C00002E48BFC0
:1008400082EA470427B26600002F48BF82EA4406C6
:1008500037B27400002F48BF82EA460427B2660010
:10086000002F48BF82EA440637B27400002F48BF09
:1008700082EA460427B26600002F48BF82EA440697
:1008800037B27400002F48BF82EA460427B26600E0
:10089000002F48BF82EA440686EA03231FB25E00A7
:1008A000002F48BF82EA430633B27700002B48BFCF
:1008B00082EA46073BB27E00002B48BF82EA470629
:1008C00033B27700002B48BF82EA46073BB27E0076
:1008D000002B48BF82EA470633B27700002B48BF9F
:1008E00082EA46073BB27E00002B48BF82EA4706F9
:1008F00037B27300002F48BF82EA460303397FF402
:1009000063AFDBF8201042F26B70CEF2A51081428B
:1009100040F09480BBF8020099B2884240F0908089
:10092000DBF81C00411C0028CBF81C1000F08D8067
:100930004CF24000C2F20100002100BF4218D3680F
:1009400001F580715F0144BF23F04063D360D36938
:100950005F0144BF23F04063D361D36A5F0144BFAA
:1009600023F04063D362D36B5F0144BF23F0406345
:10097000D363D36C5F0144BF23F04063D364D36D72
:100980005F0144BF23F04063D365D36E5F0144BF72
:1009900023F04063D366D36F5F0144BF23F040630D
:1009A000D367D2F88C305F0144BF23F04063C2F8B4
:1009B0008C30D2F89C305F0144BF23F04063C2F812
:1009C0009C30D2F8AC305F0144BF23F04063C2F8E2
:1009D000AC30D2F8BC305F0144BF23F04063C2F8B2
:1009E000BC30D2F8CC305F0144BF23F04063C2F882
:1009F000CC30D2F8DC305F0144BF23F04063C2F852
:100A0000DC30D2F8EC305F0144BF23F04063C2F821
:100A1000EC30D2F8FC305F0144BF23F04063C2F8F1
:100A2000FC30B1F5806F89D100F03AFC8246BAF112
:100A3000000F2DD1504601B0BDE8F08FCBF820005B
:100A40000120ABF80230CBF81C004CF240004CF215
:100A500000060027C2F201004FF48061C2F20106D5
:100A60008BF80170CBE90177CBF80C70FFF700FC35
:100A700000F016FC002882460CBF002000F00AFCA3
:100A8000CBE90470CBF818703770BAF1000FD1D0F1
:100A90005FEAC97000F09F8000200121C30800F0C8
:100AA0000702EF5C01FA02F21743EF54431C03F014
:100AB0000707DB08EE5C01FA07F73743EF54831CA6
:100AC00003F00707DB08EE5C01FA07F73743EF5442
:100AD000C31C03F00707DB08EE5C01FA07F7374396
:100AE000EF54031D03F00707DB08EE5C01FA07F77C
:100AF0003743EF54431D03F00707DB08EE5C01FAB0
:100B000007F73743EF54831D03F00707DB08EE5C5C
:100B100001FA07F73743EF54C31D03F00707DB085B
:100B2000EE5C01FA07F73743EF5400F10803DB08E6
:100B3000EF5C1743EF5400F1090303F00707DB08EC
:100B4000EE5C01FA07F73743EF5400F10A0303F0B4
:100B50000707DB08EE5C01FA07F73743EF5400F1B3
:100B60000B0303F00707DB08EE5C01FA07F73743D6
:100B7000EF5400F10C0303F00707DB08EE5C01FA09
:100B800007F73743EF5400F10D0303F00707DB08C5
:100B9000EE5C01FA07F73743EF5400F10E0303F060
:100BA0000707DB08EE5C01FA07F73743EF5400F163
:100BB0000F0303F00707DB08EE5C01FA07F7374382
:100BC000EF5400F11003DB08EF5C11303A43FF28CB
:100BD000EA547FF463AF5FEA897040F1D38000206C
:100BE000012100BF05EBD00300F0070293F820704D
:100BF00001FA02F2174383F82070431C03F0070741
:100C000005EBD30393F8206001FA07F7374383F825
:100C10002070831C03F0070705EBD30393F82060D3
:100C200001FA07F7374383F82070C31C03F0070766
:100C300005EBD30393F8206001FA07F7374383F8F5
:100C40002070031D03F0070705EBD30393F8206022
:100C500001FA07F7374383F82070431D03F00707B5
:100C600005EBD30393F8206001FA07F7374383F8C5
:100C70002070831D03F0070705EBD30393F8206072
:100C800001FA07F7374383F82070C31D03F0070705
:100C900005EBD30393F8206001FA07F7374383F895
:100CA000207000F1080305EBD30393F8207017437D
:100CB00083F8207000F1090303F0070705EBD30365
:100CC00093F8206001FA07F7374383F8207000F1AA
:100CD0000A0303F0070705EBD30393F8206001FA3A
:100CE00007F7374383F8207000F10B0303F0070781
:100CF00005EBD30393F8206001FA07F7374383F835
:100D0000207000F10C0303F0070705EBD30393F801
:100D1000206001FA07F7374383F8207000F10D03D4
:100D200003F0070705EBD30393F8206001FA07F7F8
:100D3000374383F8207000F10E0303F0070705EB3B
:100D4000D30393F8206001FA07F7374383F8207044
:100D500000F10F0303F0070705EBD30393F82060BE
:100D600001FA07F7374383F8207000F1100305EB11
:100D7000D30393F8207011303A43FF2883F82020E2
:100D80007FF430AF5FEA497040F1D280002001214A
:100D900005EBD00300F0070293F8407001FA02F26D
:100DA000174383F84070431C03F0070705EBD30398
:100DB00093F8406001FA07F7374383F84070831CCB
:100DC00003F0070705EBD30393F8406001FA07F738
:100DD000374383F84070C31C03F0070705EBD303C8
:100DE00093F8406001FA07F7374383F84070031D1A
:100DF00003F0070705EBD30393F8406001FA07F708
:100E0000374383F84070431D03F0070705EBD30316
:100E100093F8406001FA07F7374383F84070831D69
:100E200003F0070705EBD30393F8406001FA07F7D7
:100E3000374383F84070C31D03F0070705EBD30366
:100E400093F8406001FA07F7374383F8407000F1E8
:100E5000080305EBD30393F84070174383F8407001
:100E600000F1090303F0070705EBD30393F8406093
:100E700001FA07F7374383F8407000F10A0303F0E3
:100E8000070705EBD30393F8406001FA07F73743F0
:100E900083F8407000F10B0303F0070705EBD30361
:100EA00093F8406001FA07F7374383F8407000F188
:100EB0000C0303F0070705EBD30393F8406001FA36
:100EC00007F7374383F8407000F10D0303F007077D
:100ED00005EBD30393F8406001FA07F7374383F833
:100EE000407000F10E0303F0070705EBD30393F8FE
:100EF000406001FA07F7374383F8407000F10F03B1
:100F000003F0070705EBD30393F8406001FA07F7F6
:100F1000374383F8407000F1100305EBD30393F8D7
:100F2000407011303A43FF2883F840207FF430AFFF
:100F30005FEA097040F1D2800020012105EBD00367
:100F400000F0070293F8607001FA02F2174383F889
:100F50006070431C03F0070705EBD30393F8606050
:100F600001FA07F7374383F86070831C03F0070723
:100F700005EBD30393F8606001FA07F7374383F872
:100F80006070C31C03F0070705EBD30393F86060A0
:100F900001FA07F7374383F86070031D03F0070772
:100FA00005EBD30393F8606001FA07F7374383F842
:100FB0006070431D03F0070705EBD30393F86060EF
:100FC00001FA07F7374383F86070831D03F00707C2
:100FD00005EBD30393F8606001FA07F7374383F812
:100FE0006070C31D03F0070705EBD30393F860603F
:100FF00001FA07F7374383F8607000F1080305EB47
:10100000D30393F86070174383F8607000F109030D
:1010100003F0070705EBD30393F8606001FA07F7C5
:10102000374383F8607000F10A0303F0070705EB0C
:10103000D30393F8606001FA07F7374383F86070D1
:1010400000F10B0303F0070705EBD30393F860608F
:1010500001FA07F7374383F8607000F10C0303F0DF
:10106000070705EBD30393F8606001FA07F73743EE
:1010700083F8607000F10D0303F0070705EBD3035D
:1010800093F8606001FA07F7374383F8607000F166
:101090000E0303F0070705EBD30393F8606001FA32
:1010A00007F7374383F8607000F10F0303F0070779
:1010B00005EBD30393F8606001FA07F7374383F831
:1010C000607000F1100305EBD30393F860701130EA
:1010D0003A43FF2883F860207FF430AF687F95F8AB
:1010E0003D1095F85D2040F08000687741F0800069
:1010F00095F87D1095F85F3085F83D0042F080004E
:1011000085F85D0041F0800085F87D0043F04000E7
:1011100085F85F004CF20005C2F2010501270BF1D2
:10112000180607E056E8000F46E8001202B1F9E79A
:1011300084421BD0DBF8184000F0A6F80146A0421C
:10114000F0D2D5E84F0FC5E8427F02B1F9E70006BB
:10115000E8D1DBF8100000230130CBF81000D5E80F
:101160004F0FC5E8423F02B1F9E7DBE74FF60079E0
:10117000DBF81430DBF81C20C0F200394846FFF7DA
:10118000B1F9B8F1000F3FF455AC9BF8000000280E
:101190007FF450AC4CF200040127C2F201048BF83A
:1011A000007007E056E8000F46E8001202B1F9E7C8
:1011B00085421BD0DBF8185000F066F80146A842C3
:1011C000F0D2D4E84F0FC4E8427F02B1F9E700063D
:1011D000E8D1DBF8100000230130CBF81000D4E890
:1011E0004F0FC4E8423F02B1F9E7DBE709F1010024
:1011F00000220023FFF776F9504601B0BDE8F08FDA
:10120000F0B581B04CF2C044C2F20104207818B1AC
:10121000012001B0F0BD00BF4CF200060120C2F277
:10122000010604F11807207008E000BF57E8000F1E
:1012300047E8001202B1F9E7854219D0A56900F02C
:1012400023F80146A842F1D20123D6E84F0FC6E8A1
:10125000423F02B1F9E70006E8D1206900230130DE
:101260002061D6E84F0FC6E8423F02B1F9E7DDE75B
:101270004FF60170C0F2003000220023FFF732F970
:10128000012001B0F0BD000041F20400CEF20000E8
:101290000068704740F20C00C2F20000006870471E
:1012A0004EF6FC50CEF20000016841F08071016002
:1012B00041F20001CEF20001086840F00102012075
:1012C0000A60704770B581B00022009290F83C200F
:1012D000012A03D10221084601B070BD0E68012227
:1012E0000A2E80F83C2009D3B2B25200D0F800E0B8
:1012F00012FA86F21E3A0EF10C0305E0D0F800E077
:1013000006EB46020EF110034FF0070C1D680CFAB5
:1013100002F4A5431D608D681C6805FA02F22243A1
:101320001A60496806290FD801EB81014A1F7146EE
:101330001F2351F8345F934025EA03030B60B3B2D7
:1013400003FA02F214E000BF01EB81030C29B2B2F0
:1013500004D8714651F8304F233B03E0714651F8F1
:101360002C4F413B1F259D4024EA05059A400D6006
:101370000B6842F2043CC4F2010C1A43ACF5417311
:101380009E450A603BD1122E06D1DCF8001041F4D4
:101390008001CCF8001032E026F0010110292ED196
:1013A000DCF80010102E41F40001CCF8001026D11A
:1013B00040F20C01C2F2000109684DF68362C4F2EA
:1013C0001B32A1FB0212910C01EB8101490000913B
:1013D0000099A1B1009901390091009979B1009962
:1013E00001390091009951B100990139009100999A
:1013F00029B100990139009100990029EAD1002111
:1014000080F83C10084601B070BD0000002804BF01
:101410000120704710B50446006C00283ED0206CB7
:10142000C00645D4206C41F202118843023042F2DA
:1014300004312064C4F20101086820F440300860DF
:101440000A6894E809101A43D4F810E00A60416869
:10145000012321F4807141604168C0F6007341EAC4
:101460000E214160416821F040714160416841EACC
:101470000C014160816821F400618160E16882684B
:1014800011438160A16A8268994222F07062826091
:10149000826813D122F0405119E000BF204600F0CD
:1014A00065F80020606484F83C00206CC006B9D563
:1014B0000120002184F83C1010BD00BF1143816061
:1014C000816821F040518160E16A82681143816046
:1014D000816821F0020181608168227E94F82030C9
:1014E00041EA42018160416883B141F40061416099
:1014F00041684EF2000221F460414160616ACFF61A
:10150000FF72436802EB4131194301E021F40061AD
:101510004160C16A40F2000C21F47001C162E269CD
:101520006169CFF6F07CC36A0CEB02521A43C262C7
:10153000826822F40072826094F83020836843EA63
:1015400042228260826822F480628260826842EA7B
:101550008121816000206064216C012262F301011D
:101560002164002184F83C1010BD000080B586B0D5
:1015700042F200010068C4F2010100228842059293
:10158000049201D006B080BD43F630000092C4F250
:101590000200436943F480734361436903F4807339
:1015A0000093009B0092036843F00403036000680B
:1015B00000F0040000900098012001900320CDE984
:1015C000020201F5684001A900F040FA06B080BDB2
:1015D00070B5866D044600F019FB94F835100229A9
:1015E00028D105462068216C026822F016020260AC
:1015F000426922F08002426109B9A16C19B1016807
:1016000021F008010160016821F00101016000BFC3
:1016100020680068C00715D000F0F8FA401B0628C3
:10162000F6D320206065032084F83500002184F87B
:10163000341070BD802060650120002184F83410D2
:1016400070BD00BFE06D3F2101FA00F0B0600120E5
:1016500084F835000020002184F8341070BD0000AB
:1016600090F83510022909D1052180F8351000685D
:10167000016821F00101016000207047802141656F
:1016800001207047406D7047F0B581B004460020DE
:10169000009040F20C00C2F200000268D4E916602B
:1016A00048F2B51337680821C1F64E3381403942FC
:1016B000A2FB03250CD0226813685B0708D51368CA
:1016C00023F004031360B160616D41F001016165B5
:1016D00001218140394208D022685269120604D59E
:1016E000B160616D41F002016165042181403942C0
:1016F00008D022681268920704D5B160616D41F08C
:101700000401616510218140394217D020680268C8
:10171000120713D5B16002680168520308D4C905E5
:1017200008D4016821F008010160216C21B905E0AD
:1017300008033FD4216C09B120468847E16D202081
:1017400000FA01F23A4241D020680368DB063DD539
:10175000B26094F835300268052B1BD122F01602D6
:101760000260426922F080024261226C0AB9A26CD6
:101770001AB1026822F0080202603F208840B0607F
:10178000012084F83500216D0020002984F8340000
:1017900052D157E00168520310D4C90512D4016830
:1017A00021F010010160012084F83500002084F848
:1017B000340007E0A16C0029BED1BFE7080301D4C3
:1017C000616C00E0E16B09B120468847606DC8B3E9
:1017D000606DC0072ED0052084F835002068A90A66
:1017E000026822F001020260009A01328A420092ED
:1017F0001AD80268D20717D0009A01328A420092A2
:1018000012D80268D2070FD0009A01328A420092A1
:101810000AD80268D20707D0009A01328A420092A1
:1018200002D80268D207DFD1012084F835000020F9
:1018300084F83400E16C29B1204601B0BDE8F040E5
:10184000084700BF01B0F0BD2DE9F041044600F0AB
:10185000DDF9ECB10546022084F83500002021684E
:1018600084F83400086820F00100086021680868E6
:10187000C00711D000F0CAF9401B0528F6D903258E
:1018800020230320636584F83550BDE8F08100BF54
:101890000120BDE8F08100BF086848F23F02CFF2A6
:1018A0001002D4E9013500EA020C04F10C0898E8B2
:1018B000C10143EA0C032B431843D4E9072E3043FC
:1018C00038431043626A40EA0E00042A40EA0803E3
:1018D0001CD1206BD4E90A2E40EA0E0018430860A0
:1018E0004869BEF1000F20F0030040EA020040F01A
:1018F000040C11D0B8F5005F36D0B8F1000F45D117
:10190000022A46D0012A3BD032B942E00B60486936
:1019100020F0070040EA020C01F0F8004AF6AB2282
:101920001038CAF6AA22A0FB02231A094AF2E4439D
:10193000C0F600039A5C40F2FF335F284FF03F008F
:10194000C1F814C021EA030100FA02F088BF043193
:10195000C4E916128860002301250020636584F81D
:101960003550BDE8F08100BF032AD5D801254023BA
:101970000120DFE802F0030E030500BF82E700BF8D
:10198000AEF1C070B0FA80F0400904E0032A04D33D
:10199000C2D1CEF300600028BED001254023012033
:1019A000636584F83550BDE8F081000070B590F8AB
:1019B00034C0BCF1010F46D04FF0010C80F834C0A8
:1019C000D0F858E090F835C0BCF1010F38D14FF095
:1019D000020C80F835C04FF0000CC0F854C0D0F8AD
:1019E00000C08468056CC06DDCF80060402C26F4F3
:1019F0008026CCF80060CCF804300B4604BF1346B8
:101A00000A463F2101FA00F0CCF80830CCF80C204F
:101A1000CEF80800DCF8000040F01600CCF800001A
:101A20002DB1DCF8000040F00800CCF80000DCF834
:101A3000000040F00100CCF80000002070BD00BFA5
:101A4000002180F83410022070BD00002DE9F04F15
:101A500082B000F13E4241F6004502F1FF77C4F248
:101A60000205082243F6004E4FEAB726A84208BFF7
:101A70000722C4F2010E072E38BF4FEAB722012514
:101A8000002600274FF00008009208E008F1010846
:101A90000437B8F1100F06F1020600F0A7800C68B9
:101AA00005FA08F914EA090FF0D0D1F804B00322BE
:101AB0000BF0030CACF10104B240012C6FEA020AF6
:101AC00010D88268CC6802EA0A02B44022438260DD
:101AD0004268CBF3001422EA090204FA08F4224314
:101AE000426005E0BCF1030F02D14FF0030C20E08F
:101AF000C2688C6802EA0A02B4402243BCF1020FB9
:101B0000C26016D16FF0030202EA58020244D2F812
:101B100020C007F01C050F230C69AB402CEA03031F
:101B200004FA05F52B431362D1F804B001250BF03C
:101B3000030C02680CFA06F302EA0A021A431BF4C9
:101B4000403F0260A2D0002243F644030192C4F257
:101B500002031A684FF6084C42F480421A601A6871
:101B6000CFF6FF7C02F480420192019A28F0030232
:101B7000724452F80C3007F00C050F24AC40A3431C
:101B8000009C04FA05F52B4342F80C30DEF80820DF
:101B90004B6842EA090543F60C4CDC0258BF22EAC6
:101BA0000905CEF80850C4F2010CDCF800209C02B4
:101BB00042EA090558BF22EA0905CCF80050DEF8D0
:101BC00004209C0342EA090558BF22EA0905CEF821
:101BD0000450DEF80020DB0342EA090558BF22EA80
:101BE0000905CEF80050012550E700BF02B0BDE85E
:101BF000F08F00000069084018BF01207047000006
:101C0000002A08BF090481617047000047F22810CC
:101C1000C2F201000068704740F2040047F2281148
:101C2000C2F20000C2F2010100780A6810440860A4
:101C30007047000080B543F60040C4F2020001681E
:101C400041F400710160016841F480610160016844
:101C500041F480710160032000F0C8F80F2000F00B
:101C600005F800F061F8002080BD000070B586B076
:101C7000002543F640010195C4F202010A680446BA
:101C800042F480720A60096801A801F48071019130
:101C90000199694600F072F9049E002E18BF0126D2
:101CA00000F08CF94DF68361B040C4F21B31A0FB0B
:101CB00001014FF0FF3000EB914140F2E42042F28D
:101CC0000002C2F20000C4F2000240F2E733C0E9B1
:101CD0000021C0E902530561856100F0F5FB05466E
:101CE00010B1284606B070BD40F2E420C2F20000F8
:101CF00000F046FC05460028F3D12D2000F036F810
:101D00000F2C0DD82D2021460022002500F042F88E
:101D100040F20800C2F200000460284606B070BD20
:101D20000125284606B070BD82B0002043F6400170
:101D30000190C4F202014A6842F480424A604A6853
:101D400002F480420192019A00900868002240F05B
:101D50008050086008680F2100F0805000900098C3
:101D60006FF0010002B000F015B80000002848BF75
:101D70007047C1B200F01F00012202FA00F04EF2DB
:101D80000012CEF2000242EAD10121F00301086004
:101D90007047000010B54EF60C5CCEF2000CDCF87B
:101DA0000030C3F3022E8EF00704042C28BF042455
:101DB000BEF103034FF0FF3E0EFA04F438BF0023D8
:101DC000A14399400EFA03F39A43114300F00F0226
:101DD00000F160430901043A03F5644362440028BA
:101DE00048BF02F10C03197010BD00004EF60C51F3
:101DF000CEF200010A684FF6FF031A4060F30A2290
:101E000042F0806040F0FD7008607047704700004D
:101E10002DE9F041002800F08B8043F60808C4F259
:101E200002080446D8F8F8030D4600F0070088427F
:101E300007D288F8F853D8F8F80300F00700A84252
:101E400076D12068810717D5410705D5D8F800104D
:101E500041F4E051C8F80010010705D5D8F800108A
:101E600041F46041C8F80010D8F80010A26821F0D1
:101E7000F0011143C8F80010C0073FD1D8F8F803AB
:101E800000F00700A84207D988F8F853D8F8F803FB
:101E900000F00700A8424BD12068410707D5D8F8C9
:101EA0000010E26821F4E0511143C8F80010000767
:101EB00008D5D8F80000216920F4604040EAC1004C
:101EC000C8F8000000F0A2F8D8F800104AF270320A
:101ED000C1F30311C0F60002515C40F20C0220FA7B
:101EE00001F140F20800C2F200000068C2F20002F4
:101EF0001160FFF7BBFE0020BDE8F0816068811E25
:101F0000022907D258F8081C89015CBF0120BDE8EE
:101F1000F08111E0012807D158F8081C89035CBF43
:101F20000120BDE8F08107E058F8081C890703D4B8
:101F30000120BDE8F08100BFD8F8001021F00301B6
:101F40000843C8F80000FFF761FE064641F28837F3
:101F5000D8F80000616800F00C00B0EB810F8DD064
:101F6000FFF754FE801BB842F2D90320BDE8F08190
:101F70004C20C4F247200121016070470F2202600B
:101F800043F60802C4F20202136803F0030343603D
:101F9000136803F0F0038360136803F4E053C36035
:101FA000D2F800C04FF4E05303EADC030361D2F837
:101FB000F80300F0070008607047000040F20C00D2
:101FC00043F60801C2F20000C4F202010068096889
:101FD0004AF28032C1F38221C0F60002515CC8404F
:101FE0007047000040F20C0043F60801C2F2000006
:101FF000C4F20201006809684AF28032C1F342313A
:10200000C0F60002515CC8407047000010B543F6AE
:102010000404C4F20204606800F00C0142F20040C3
:102020000829C0F2F40007D0042918BF10BD41F2FE
:102030000020C0F27A0010BD216801F03F02216843
:1020400023684902C3F3881106D4A1FB00010023D1
:10205000FEF7B6F807E000BF41F20020C0F27A00B8
:102060004843B0FBF2F021680222C1F3014102EBC8
:102070004101B0FBF1F010BD10B543F60C04C4F201
:1020800002042068000658BF10BDFFF7BFFE802085
:10209000A07010BD2DE9F04182B0002868D0044640
:1020A000007843F60006C007C4F202060BD0B06801
:1020B00000F00C00042840F09F803068800302D5B7
:1020C0006068002854D0207880071AD5B06810F0D6
:1020D0000C0F09D0B06800F00C00082840F0A68072
:1020E0007068400200F1A2803068800702D5E06885
:1020F00001283DD13068216920F0F80040EAC10094
:1021000030602078000737D4207840074CD4A56988
:1021100055B3B06800F00C00082840F0BB80012DDA
:1021200026D07068E16900F480028A4220D1216AD9
:1021300000F03F028A421BD147F6C071626A01403B
:10214000B1EB821F14D1A16A4FF6FF73C903994303
:1021500000F44032A1F580318A4209D1E16A00F0F1
:102160007060B0EB016F03D1002002B0BDE8F081D8
:10217000012002B0BDE8F0816069002840F2000053
:10218000C4F2472076D00121C0F8801EFFF73EFD43
:10219000054600BF706F8007B6D4FFF737FD401BC0
:1021A0000228F7D9DDE000BF306C10F080580AD16A
:1021B00000200190306C40F080503064306C00F0B2
:1021C00080500190019847F20007C4F20007386878
:1021D000C00541D4386840F480703860FFF716FDC0
:1021E000054600BF3868C00536D4FFF70FFD401B19
:1021F0000228F7D9B5E000BFB06800F00C0008284D
:1022000003D1706840023FF558AF6068B0F5803F79
:1022100007D0B0F5A02F40F08D80306840F48020CA
:102220003060306840F4803030608DE0E068002835
:1022300052D00020C4F2472001210160FFF7E6FCE4
:10224000054600BF306880073FF554AFFFF7DEFC5E
:10225000401B0228F6D984E0A068012805D0052893
:102260004ED1306F40F004003067306F40F0010015
:1022700030674FE00021C0F8801EFFF7C7FC05461D
:10228000706F80077FF540AFFFF7C0FC401B02284E
:10229000F6D966E00027C4F2472700203866FFF72A
:1022A000B5FC022D05460BD1306880015ED5FFF7E5
:1022B000ADFC401B02284FF00300F5D955E700BFE5
:1022C000306880017FF550AFFFF7A0FC401B02286B
:1022D0004FF00300F4D948E70020C4F24720002162
:1022E0000160FFF793FC0546306880077FF509AF72
:1022F000FFF78CFC401B02284FF00300F4D934E7B1
:10230000316F002821F001013167316F21F00401A4
:1023100031674DD0FFF77AFC054641F2883700BFA0
:10232000306F800756D4FFF771FC401BB842F7D9D5
:1023300017E000BF3168002821F480313160316836
:1023400021F4802131604FD0FFF760FC054600BFCB
:10235000306880033FF5B7AEFFF758FC401B642898
:10236000F6D9032002B0BDE8F08100BF04F11C05DE
:102370002FCD084340EA8210D9034FF6FF729143F4
:10238000A1F5803140EA056008437060012038669D
:10239000FFF73CFC044600BF306880013FF5E4AE27
:1023A000FFF734FC001B02284FF00300F4D9DCE6F1
:1023B000FFF72CFC054641F2883700BF306F8007DD
:1023C00008D5FFF723FC401BB8424FF00300F5D9B6
:1023D000CBE600BFB8F1000F7FF499AE306C20F06F
:1023E0008050306493E600BFFFF710FC054600BF45
:1023F000306880037FF567AEFFF708FC401B642858
:102400004FF00300F4D9B0E67047000070470000B9
:1024100010B590F83C20012A4FF0020251D080F80C
:102420003D200268D2F804E0D2F808C00C682EF013
:102430007003234341F2FF74C4F20004A2425360CC
:102440000EDC40F2FF73C4F200039A4216DCB2F1D4
:10245000804F2BD040F20043C4F2000324E000BFC1
:1024600040F2FF33C4F201039A4213DC41F6000349
:10247000C4F200039A4219D0002313E040F600038F
:10248000C4F200039A4211D040F60043C4F20003A4
:102490000AE000BF44F20003C4F201039A4205D0EF
:1024A00040F20043C4F201039A4204D149682CF07F
:1024B0008003194391600121002280F83D1080F8CB
:1024C0003C20104610BD0000002804BF01207047CA
:1024D00010B5044690F83D0028B9002084F83C006F
:1024E000204600F01FF8022084F83D002068211DDE
:1024F00002F020F9012084F8460084F83E0084F8B8
:102500003F0084F8400084F8410084F8420084F8D9
:10251000430084F8440084F8450084F83D0000201E
:1025200010BD000082B0006844F60001C4F2010151
:10253000884213D0B0F1804F1FD10020019043F6A4
:102540004000C4F20200016841F00101016000682E
:1025500000F001000190019802B070470020009047
:1025600043F64000C4F20200416841F4802141601A
:10257000406800F480200090009802B0704700008E
:1025800090F83D1001291CBF01207047022180F8FE
:102590003D10006841F2FF72C168C4F2000290422F
:1025A00041F00101C1600DDC40F2FF71C4F2000195
:1025B000884215DCB0F1804F2AD040F20041C4F2CD
:1025C000000123E040F2FF31C4F20101884213DC34
:1025D00041F60001C4F20001884219D0002113E045
:1025E00040F60001C4F20001884211D040F60041DB
:1025F000C4F200010AE000BF44F20001C4F201018C
:10260000884205D040F20041C4F20101884206D15F
:10261000816801F00701062904BF002070470168A6
:1026200041F00101016000207047000080B590F882
:102630003C20012A4FF0020200F0C28080F83D20C9
:10264000D0F800C04FF67772DCF8083023EA0202B7
:10265000CCF808200B684F2B28DC1F2B44DD202BE7
:1026600045D0302B43D0402B40F0AC80D1F804E073
:10267000C968DCF82030DCF8202022F00102CCF818
:102680002020DCF8182022F0F00242EA011123F0A9
:102690000A0242EA0E02CCF81810CCF82020DCF82E
:1026A000081041F0470121F0300180E06F2B27DD59
:1026B000B3F5005F48D0B3F5805F7AD0702B40F05F
:1026C0008180D1E901E3C968DCF8082043EA0E0300
:1026D00022F47F4243EA01211143CCF80810DCF8D0
:1026E000081041F0770162E00BB1102B6AD1DCF8E1
:1026F000081021F07001194341F0070157E000BFB5
:10270000502B35D0602B5DD1D1F804E0C968DCF8DE
:10271000203023F01003CCF82030DCF81830DCF83F
:10272000202023F4704322F0A00243EA013142EA60
:102730000E12CCF81810CCF82020DCF8081041F06C
:10274000670121F0100132E0D1E901E3C968DCF84A
:10275000082043EA0E0322F47F4243EA0121114399
:10276000CCF80810DCF8081041F480411FE000BFED
:10277000D1F804E0C968DCF82030DCF8202022F031
:102780000102CCF82020DCF8182022F0F00242EA06
:10279000011123F00A0242EA0E02CCF81810CCF81C
:1027A0002020DCF8081041F0570121F02001CCF87E
:1027B00008100022012180F83D10002180F83C1013
:1027C000104680BD0122F5E77047000010B5016892
:1027D00004460869800744BFC8685FEA807039D43E
:1027E0000869400744BFC8685FEA40703ED4086982
:1027F000000744BFC8685FEA007045D40869C00696
:1028000044BFC8685FEAC0604AD40869C0071CBFFB
:10281000C8685FEAC07051D10869000644BFC86843
:102820005FEA006052D40869400644BFC8685FEAA6
:10283000406053D40869800646BFC8685FEA80607C
:1028400010BD6FF0200220460A61BDE81040FFF77E
:10285000DDBD00BF6FF002000861012020778869AC
:10286000800743D02046FFF7AFFF45E06FF004003C
:10287000086102202077886910F4407F40D020460C
:10288000FFF7A2FF42E000BF6FF0080008610420DC
:102890002077C86980073DD02046FFF795FF3FE0CD
:1028A0006FF01000086108202077C86910F4407F9D
:1028B0003AD02046FFF788FF3CE000BF6FF00100F0
:1028C0000861204600F07AFA2168A5E76FF08000E1
:1028D00008612046FFF798FD2168A4E76FF04000EB
:1028E0000861204600F074FA2168A3E7204600F052
:1028F00025F8204600F080F92168002020776FE756
:10290000204600F01BF8204600F076F921680020F0
:1029100020776CE7204600F011F8204600F06CF9B3
:1029200021680020207769E7204600F007F820465C
:1029300000F062F921680020207766E77047000008
:102940002DE9F04390F83C30012B04BF0220BDE894
:10295000F0834FEAB202032A00F2FC80DFE802F0C3
:10296000023E7EBE036840F200471A6A43F4806567
:1029700022F001021A621C6A1A46D3F804E052F8E7
:1029800018CF8E6824F00204C4F20107BD4244EA65
:10299000060405D1CE6824F00C0426F00406344366
:1029A0000E68BD4207D1D1E905572EF4407E45EAB5
:1029B0000E0545EA070E2CF073073743C3F804E011
:1029C0009F614F6809695F631C629F6947F0080750
:1029D0009F619F6927F004079F61B1E0036840F29F
:1029E00000481A6A43F4806522F010021A621C6AD9
:1029F0001A46D3F804C052F818EF8F6824F0200468
:102A0000C4F20108454544EA071407D1CF686FF0C6
:102A1000400624F0C00406EA07163443D1F80090BB
:102A2000454506D1D1E905562CF440672E4347EAC7
:102A3000860C2EF4E64747EA0927C3F804C09F61D5
:102A40004F6809699F631C629F6947F400679F6133
:102A50009F6927F480679F6171E000BF036840F2BF
:102A600000481A6A43F4806522F480721A621C6A74
:102A70001A46D3F804C052F81CEF8F6824F400748F
:102A8000C4F20108454544EA072408D1CF6840F262
:102A9000FF463F0224F4406427EA06063443D1F897
:102AA0000090454506D1D1E905562CF440572E43F8
:102AB00047EA061C2EF0730747EA0907C3F804C06B
:102AC000DF614F680969DF631C62DF6947F008074F
:102AD000DF61DF6927F00407DF6131E0036840F25E
:102AE00000451A6A43F4806722F480521A621A463B
:102AF000D3F820C05C6852F81CEFD1F800808E68D3
:102B0000C4F20105AF4204D14D6924F4804444EA83
:102B100085142CF4005747EA06372EF4E64646EAB9
:102B200008265C60DE614E6809691E641F62DF6909
:102B300047F40067DF61DF6927F48067DF6109021E
:102B40001368194311600021002280F83C200846D8
:102B5000BDE8F0830121002280F83C200846BDE852
:102B6000F0830000002804BF0120704710B5044620
:102B700090F83D0028B9002084F83C00204600F081
:102B80001FF8022084F83D002068211D01F0D2FDCD
:102B9000012084F8460084F83E0084F83F0084F861
:102BA000400084F8410084F8420084F8430084F82F
:102BB000440084F8450084F83D00002010BD00006A
:102BC00081B0006840F60001C4F20001884201D0E3
:102BD00001B070470020009043F64000C4F20200AC
:102BE000016841F004010160006800F004000090F9
:102BF000009801B0704700007047000041B10829FB
:102C000010D0042914BF00F1410200F13F020BE093
:102C100090F83E20012A1CBF01207047022280F854
:102C20003E2013E000F140021278012A1CBF01206F
:102C300070470222082907D0042914BF80F84120D8
:102C400080F83F2002E000BF80F84020006801F0DB
:102C50001F010122036A02FA01F123EA0102026262
:102C6000026A114341F2FF72C4F200029042016213
:102C70000CDC40F2FF71C4F20001884214DCB0F1B8
:102C8000804F37D040F2004116E000BF40F2FF31E4
:102C9000C4F20101884215DC41F60001C4F20001D2
:102CA000884227D0002115E040F60001C4F200015F
:102CB00088421FD040F60041C4F20001884219D07A
:102CC0001FE000BF44F20001C4F20101884211D0AC
:102CD00040F20041C4F20101884212D1416C40F23D
:102CE000004340F48062C4F2010341F400419A427F
:102CF000416406D1816801F00701062904BF002064
:102D00007047016841F00101016000207047000038
:102D100010B5026801F01F0E4FF0010C146A0CFA96
:102D20000EF324EA0303136240F20043D2F820C0FA
:102D300042F48064C4F201039C42C2F820C009D16D
:102D4000136A41F21114234204D1136A40F244443D
:102D500023420FD0136A41F21114234213D1136A94
:102D600040F2444423420ED1136823F00103136060
:102D700009E000BF536C23F400435364136A41F22B
:102D800011142342EBD008290CD0042910D00029BB
:102D90004FF0010114BF80F8411080F83E10002070
:102DA00010BD00BF012180F84010002010BD00BF01
:102DB000012180F83F10002010BD0000006842F2A1
:102DC0000001C4F20001884218BF7047FEF724BF1B
:102DD0007047000070B582B0044690F83E0020288D
:102DE0000ED113460A4600294FF0010018BF002BF0
:102DF00002D102B070BD00BF94F83C00012803D19D
:102E0000022002B070BD00BF012084F83C002063A6
:102E100000262220A262A385266484F83E00216851
:102E2000A06B44F6112C44F66D3E44F69505C0F6B1
:102E3000000CC0F6000EC0F600050431C0E90FCE4C
:102E4000C0E91356FEF7B2FD0196206801680191B2
:102E5000406801900198206984F83C6030B300BF5D
:102E6000206850E8030F216840F4807041E80302B5
:102E7000E2B1206850E8030F216840F4807041E817
:102E800003029AB1206850E8030F216840F4807073
:102E900041E8030252B1206850E8030F216840F472
:102EA000807041E80302002ADAD100BF206850E8B0
:102EB000050F216840F0010041E80502E2B12068F9
:102EC00050E8050F216840F0010041E805029AB181
:102ED000206850E8050F216840F0010041E8050234
:102EE00052B1206850E8050F216840F0010041E828
:102EF0000502002ADAD100BF206850E8050F2168DA
:102F000040F0400041E80502DAB1206850E8050FC2
:102F1000216840F0400041E8050292B1206850E885
:102F2000050F216840F0400041E805024AB12068E1
:102F300050E8050F216840F0400041E80502002AF2
:102F4000DAD1206B01282FD1002000902068016881
:102F50000091406800900098206850E8030F2168B5
:102F600040F0100041E8030212B3206850E8030F5C
:102F7000216840F0100041E80302CAB1206850E81F
:102F8000030F216840F0100041E8030282B120687D
:102F900050E8030F216840F0100041E80302002AC6
:102FA0004FF00000D8D124E7012002B070BD00BF6F
:102FB000002002B070BD00007047000070470000A4
:102FC00010B50446206850E8030F216820F4907083
:102FD00041E80302BAB3206850E8030F216820F4E7
:102FE000907041E8030272B3206850E8030F216833
:102FF00020F4907041E803022AB3206850E8030FE0
:10300000216820F4907041E80302002ADAD11AE026
:10301000206850E8050F216820F0010041E8050212
:10302000DAB1206850E8050F216820F0010041E87E
:10303000050292B1206850E8050F216820F00100D8
:1030400041E805024AB1206850E8050F216820F0E8
:10305000010041E80502002ADAD1206B012824D1C1
:10306000206850E8030F216820F0100041E80302B7
:10307000DAB1206850E8030F216820F0100041E821
:10308000030292B1206850E8030F216820F010007D
:1030900041E803024AB1206850E8030F216820F09C
:1030A000100041E80302002ADAD120684069400696
:1030B00036D500BF206850E8050F216820F0400099
:1030C00041E80502DAB1206850E8050F216820F0D8
:1030D000400041E8050292B1206850E8050F2168E0
:1030E00020F0400041E805024AB1206850E8050F91
:1030F000216820F0400041E80502002ADAD1A06BE7
:1031000070B100210165FEF763FA48B1A06BFEF7CC
:10311000B9FA202804D110202064032010BD00BF7C
:1031200000202021E08584F83E10206310BD0000BF
:10313000704700007047000070470000B0B582B0D3
:10314000044600680168C368426901F02F05202D1C
:1031500003F0200506D12DB1204602B0BDE8B040F5
:1031600001F06ABD5FEA017C1EBF02F0010E03F4AC
:10317000907212EB0E024FD1226B012A05D111F091
:10318000100218BF13F0100232D10A0622D513F034
:1031900080021FD094F83D1021293BD1A168B1F5E0
:1031A000805F03D12169002900F06482216A4A1CF2
:1031B000226209784160E18C01390A04E18429D155
:1031C000C16821F08001C160C16841F04001C16067
:1031D00002B0B0BD49061DD513F040011AD0C16838
:1031E00021F04001C160202084F83D00A16CC0E1C5
:1031F00000210191016801914168019101994069A3
:10320000400613D4A08DE18DE28D002A18BF8842BC
:1032100040F0B48102B0B0BDCA0718BF13F4807289
:1032200040F0B4804A0700F1B780BCE0A16B0868A9
:10323000426893B2002BEDD0A08D8342EAD2E285A2
:10324000C969B1F5807F00F09D80206850E8030FC8
:10325000216820F4807041E80302DAB1206850E868
:10326000030F216820F4807041E8030292B12068C6
:1032700050E8030F216820F4807041E803024AB14E
:10328000206850E8030F216820F4807041E80302B1
:10329000002ADAD1206850E8050F216820F00100EB
:1032A00041E80502DAB1206850E8050F216820F0F6
:1032B000010041E8050292B1206850E8050F21683D
:1032C00020F0010041E805024AB1206850E8050FEE
:1032D000216820F0010041E80502002ADAD12068C7
:1032E00050E8050F216820F0400041E80502DAB1FE
:1032F000206850E8050F216820F0400041E80502F1
:1033000092B1206850E8050F216820F0400041E8A4
:1033100005024AB1206850E8050F216820F04000FE
:1033200041E80502002ADAD1202084F83E0000207E
:103330002063206850E8030F216820F0100041E866
:103340000302DAB1206850E8030F216820F0100072
:1033500041E8030292B1206850E8030F216820F091
:10336000100041E803024AB1206850E8030F2168C9
:1033700020F0100041E80302002ADAD1A06BFEF72A
:1033800027F9A08DA26EE18D401A6DE1226C42F00A
:10339000010222644A0706D5BEF1000F03D0226C59
:1033A00042F0020222648A0706D5BEF1000F03D064
:1033B000226C42F004022264BCF1000F09D545EAF8
:1033C0000E02B2FA82F2520903D1226C42F00802D4
:1033D0002264226C002A3FF41DAF11F0200118BFB7
:1033E000002D03D0204601F027FC20684069216CA5
:1033F00000F0400001F00801401800F0B18000BF6B
:10340000206850E8030F216820F4907041E803021F
:10341000BAB3206850E8030F216820F4907041E8A7
:10342000030272B3206850E8030F216820F4907003
:1034300041E803022AB3206850E8030F216820F412
:10344000907041E80302002ADAD11AE0206850E8BF
:10345000050F216820F0010041E80502DAB120687B
:1034600050E8050F216820F0010041E8050292B103
:10347000206850E8050F216820F0010041E80502AE
:103480004AB1206850E8050F216820F0010041E8AA
:103490000502002ADAD1206B012824D1206850E8E7
:1034A000030F216820F0100041E80302DAB1206820
:1034B00050E8030F216820F0100041E8030292B1A8
:1034C000206850E8030F216820F0100041E8030253
:1034D0004AB1206850E8030F216820F0100041E84D
:1034E0000302002ADAD1202084F83E000020206365
:1034F0002068406940063BD5206850E8050F2168E8
:1035000020F0400041E80502DAB1206850E8050FDC
:10351000216820F0400041E8050292B1206850E89F
:10352000050F216820F0400041E805024AB12068FB
:1035300050E8050F216820F0400041E80502002A0C
:10354000DAD1A06BA0B144F68901C0F60001016593
:10355000FEF786F800283FF45DAEA06B016D09E030
:10356000616D204688470020206402B0B0BD00BFD6
:10357000616D204602B0BDE8B0400847401A21689E
:1035800051E8031F226821F4907142E80313DBB174
:10359000216851E8031F226821F4907142E8031367
:1035A00093B1216851E8031F226821F4907142E829
:1035B00003134BB1216851E8031F226821F4907175
:1035C00042E80313002BDAD1216851E8051F226875
:1035D00021F0010142E80513DBB1216851E8051F24
:1035E000226821F0010142E8051393B1216851E8F6
:1035F000051F226821F0010142E805134BB1216843
:1036000051E8051F226821F0010142E80513002B53
:10361000DAD1202184F83E1000212163216851E88D
:10362000031F226821F0100142E80313DBB1216877
:1036300051E8031F226821F0100142E8031393B1FF
:10364000216851E8031F226821F0100142E80313AA
:103650004BB1216851E8031F226821F0100142E8B4
:103660000313002BDAD1A26E81B2204602B0BDE86E
:10367000B0401047216A31F8022B6FF35F2242609D
:10368000216298E5002804BF0120704770B5044608
:1036900090F83D00D0BB002043F63D5184F83C003B
:1036A00043F64150C0F60001C0F60000A164E16E8F
:1036B00043F6E91243F6E51343F2391C42F6BD7EA8
:1036C00043F2351543F23116606442F6B970C0F624
:1036D0000002C0F60003C0F6000CC0F6000EC0F6F3
:1036E0000005C0F60006C0F60000E2642365C4F8D9
:1036F00054C0C4F858E0C4E91756A06621B943F293
:103700004D71C0F60001E16620468847242084F808
:103710003D002068C16821F40051C160204601F0DD
:103720000BFB2068016921F490410161416921F09E
:103730002A014161C16841F40051C160002020218B
:10374000206484F83D1084F83E1070BD2DE9F047E8
:1037500086B00446216844F20042C4F20002002010
:103760009142CDE90400CDE90200019076D041F20A
:103770000040C4F20100814200F09C8041F2000050
:10378000C4F20100814240F0BF80002643F63000C1
:103790000096C4F20200416946F2404841F010012F
:1037A00041614169C4F2020801F0100100910099E1
:1037B0000096016841F001010160006801A900F074
:1037C0000100009000984FF4C06001900220CDE904
:1037D000020603200490072005900020C4F2020096
:1037E000FEF734F940F2DC15C2F200054FF0006A32
:1037F0004FF480694FF400372846C5E9008AC5E9CF
:103800000266C5E90496C5E90666C5E90876FEF7CD
:103810001BF8002818BFFCF78DFDA563AC6340F2D0
:103820003C2508F17800C2F200054021C5E9000AF4
:1038300005F1080080E842022846C5E90566C5E9A9
:1038400007676E62FEF700F8002818BFFCF772FDEC
:103850006563AC6306B0BDE8F08700BF43F6300196
:103860000090C4F202010A6942F400320A610A6956
:1038700002F400320092009A00900A6842F00802B6
:103880000A60096801F00801009100996021019126
:103890000221CDE9021003200490072005900020AA
:1038A000C4F2020000F5406001A9FEF7CFF806B0AF
:1038B000BDE8F087002043F630010090C4F2020119
:1038C0004A6942F020024A614A6902F020020092ED
:1038D000009A00900A6842F004020A60096801F048
:1038E000040100910099C02101910221CDE902104B
:1038F00003200490082005900020C4F2020000F587
:10390000006001A9FEF7A2F806B0BDE8F08700004C
:10391000B2B190F83C30012B04BF0220704790F800
:103920003D30202B12D10C2913D8DFE801F00725F8
:103930002729312B2D2F121212212300426428E057
:10394000016C41F0200101640120704790F83D3086
:1039500053B1016C41F0200101640121002280F883
:103960003C200846704700BF0C2903D00B29F0D13A
:10397000C2660EE002670CE082640AE0C26408E0FE
:10398000026506E0826504E0C26502E0026600E0CE
:1039900042650021002280F83C2008467047000064
:1039A00081B190F83C20012A04BF0220704790F8B2
:1039B0003D20202A0CD181660021002280F83C2085
:1039C00008467047016C41F02001016401207047F6
:1039D000016C41F0200101640121002280F83C20AB
:1039E0000846704770470000704700002DE9F0431B
:1039F00081B0044690F83D0020280DD10F460029E3
:103A00004FF0010000F0DD801646002A00F0D9805A
:103A100094F83C00012803D1022001B0BDE8F083F6
:103A2000012084F83C000020206421201D4684F8F9
:103A30003D00FEF7EBF8A684E684A1680646B1F5E2
:103A4000805F03D12069002800F01081B84600276C
:103A5000002084F83C00E18C2068002900F0908070
:103A600005F101090DE000BFB8F1000F28D018F8EA
:103A7000011B4160E18C0139E184E18C002900F0F7
:103A80007F8001680906EFD4B9F1000F0AD0FDB1BB
:103A9000FEF7BCF8801BA8421AD820680168090606
:103AA000F6D5E1E701680906DED4016809065CBFC6
:103AB00001685FEA0161D7D401680906F2D5D3E74E
:103AC00037F8021B4FF000086FF35F21D1E700BF0A
:103AD000206850E8030F216820F4D07041E8030209
:103AE000BAB3206850E8030F216820F4D07041E891
:103AF000030272B3206850E8030F216820F4D070ED
:103B000041E803022AB3206850E8030F216820F43B
:103B1000D07041E80302002ADAD11AE0206850E8A8
:103B2000050F216820F0010041E80502DAB12068A4
:103B300050E8050F216820F0010041E8050292B12C
:103B4000206850E8050F216820F0010041E80502D7
:103B50004AB1206850E8050F216820F0010041E8D3
:103B60000502002ADAD1202084F83D0084F83E00C6
:103B7000002084F83C00032001B0BDE8F08300BFC2
:103B80000168490619D4FDB1691C0DD101684906C7
:103B900013D4016849065CBF01685FEA41610CD437
:103BA00001684906F2D508E0FEF730F8801BA8420C
:103BB0000AD8206800684006F6D5202084F83D0029
:103BC000002001B0BDE8F083206850E8030F2168B1
:103BD00020F4D07041E80302E2B3206850E8030FFC
:103BE000216820F4D07041E803029AB3206850E8BD
:103BF000030F216820F4D07041E8030252B320681B
:103C000050E8030F216820F4D07041E80302002A35
:103C1000DAD11FE0206850E8050F216820F001008C
:103C200041E80502002A9ED0206850E8050F21686F
:103C300020F0010041E80502002A3FF494AF20681B
:103C400050E8050F216820F0010041E80502002A34
:103C50003FF489AF206850E8050F216820F001008B
:103C600041E80502002AD5D17DE700BF4FF00008EA
:103C7000EEE6000070B5044690F83D0020280BD118
:103C800000294FF0010055D0002A134608BF70BD2F
:103C900094F83C00012801D1022070BD012084F875
:103CA0003C00002621202162A384E384266484F85A
:103CB0003D002268606B44F6813C44F6314E44F688
:103CC0009505C0F6000CC0F6000EC0F600050432E3
:103CD000C0E90FCEC0E91356FDF768FE20686FF00B
:103CE0004001016084F83C60206850E8050F2168BD
:103CF00040F0800041E80502F2B1206850E8050F6D
:103D0000216840F0800041E80502AAB1206850E82F
:103D1000050F216840F0800041E8050262B120688B
:103D200050E8050F216840F0800041E80502002AB4
:103D3000DAD1002070BD00BF002070BD70470000C8
:103D400070470000FEE70000B0B584B040F2941068
:103D500042F2000101220024C2F20000C4F201017B
:103D6000C0F6007201250394047680F82040C0E973
:103D70000A24C56180F83040C0E90014C0E902445B
:103D8000C0E90445FDF742FB002818BFFCF7D2FA52
:103D90000A20CDE9000540F29410C2F20000694605
:103DA0000294FDF78FFA002818BFFCF7C3FA04B09D
:103DB000B0BD000081B00020009043F63000C4F296
:103DC0000200016841F480010160006800F4800095
:103DD0000090009801B0704710B54AF2D052C0F67A
:103DE00000020120012102F06FF940F23004C2F21A
:103DF00000044AF284522060C0F600020120012132
:103E000002F062F94AF250526060C0F600020120EE
:103E1000012102F059F9A06045F211204AF2D43391
:103E2000C0F60000C0F600030121002202F034FABF
:103E3000E06045F285404AF24053C0F60000C0F60B
:103E400000030121002202F027FA206145F2A500BB
:103E50004AF2C433C0F60000C0F60003012100227C
:103E600002F01AFA4AF210526061C0F60002052010
:103E7000102101F0C9FF4AF22852A061C0F60002E9
:103E80000520102101F0C0FF4AF29452E061C0F613
:103E900000022020042101F0B7FF206244F23560C7
:103EA0004AF2EC42C0F60000C0F60002002102F027
:103EB00099F9606244F645604AF2A032C0F600000B
:103EC000C0F60002002102F08DF9A06246F2D9602E
:103ED0004AF26052C0F60000C0F60002002102F073
:103EE00081F9E06246F6F1204AF2AC52C0F60000D9
:103EF000C0F60002002102F075F9206310BD000039
:103F00002DE9F04F87B0002643F630000696019663
:103F1000C4F20200016840F2004441F080010160F7
:103F20000168C4F2020401F0800101910199019637
:103F30000168002241F00401016001684FF48065CE
:103F400001F00401019101990196016841F001011C
:103F50000160016801F00101019101990196016878
:103F600041F002010160016801F002010191019933
:103F70000196016841F008010160016801F0080143
:103F8000019101990196016841F0100101600068FA
:103F90004FF4806100F01000019001982046FDF779
:103FA0002FFE04F5806840464FF4807101224FF4E3
:103FB000807A4FF00109FDF723FEA4F580673846AB
:103FC0004FF480710022FDF71BFE20464FF48071F4
:103FD0000122FDF715FECDE9025902AD2046294622
:103FE000CDE90466FDF732FD4FF4006002A981E8D7
:103FF000410220462946FDF729FD4FF0030B4046BC
:104000002946CDE902A90496CDF814B0FDF71EFDAE
:1040100038462946CDE902A9CDE90466FDF716FD2B
:1040200020462946CDE902A9CDE9046BFDF70EFD36
:1040300004F540602946CDE902960496FDF706FD99
:1040400007B0BDE8F08F000070B58EB040F29C2044
:1040500044F600050021C2F200006323C4F201050A
:10406000CDE90611CDE9041140F24732C0E902134F
:1040700001618021C0E900528161FEF725FA002824
:1040800018BFFCF757F940F29C20C2F20000FEF77F
:1040900069FD002818BFFCF74DF9602040F29C2410
:1040A00001900420C2F200040026059001A92046D8
:1040B0000022CDE90266FEF743FC002818BFFCF79A
:1040C00039F920680996A8421ED040F60001C4F2D2
:1040D000000188422ED0B0F1804F4AD1002143F632
:1040E00030000891C4F20200026842F0010202604E
:1040F0000068012200F00100089008980F20099044
:1041000005F538402CE000BF002143F6300008914F
:10411000C4F20200026842F0020202600068032258
:1041200000F00200089008984FF40070099005F51F
:104130003C4015E00020089043F63000C4F2020035
:104140000168022241F0080101600068032100F0CB
:104150000800089008984FF47040099005F5444015
:1041600002230A930023CDE90B3109A90D92FDF733
:104170006DFC0EB070BD000010B594B040F22C3054
:104180000021C2F2000044F61F640D91CDE90B112D
:104190000991CDE90711CDE90511CDE90311CDE96B
:1041A00001114FF080425323C0E9021401618021C4
:1041B000C0E900238161FEF787F9002818BFFCF7EA
:1041C000B9F84FF480500A9040F22C30C2F200004F
:1041D0000AA9FEF72BFA002818BFFCF7ABF840F24B
:1041E0002C30C2F20000FEF7BDFC002818BFFCF71F
:1041F000A1F840F22C300024C2F2000008A9CDE959
:104200000844FEF705F9002818BFFCF793F8602072
:10421000CDE901040420059040F22C30C2F20000E8
:1042200001A900220394FEF78BFB002818BFFCF7BE
:1042300081F840F22C30C2F2000001A90422FEF7FE
:104240007FFB002818BFFCF775F840F22C30C2F253
:10425000000001A90822FEF773FB002818BFFCF735
:1042600069F840F22C34C2F2000401A920460C2265
:10427000FEF766FB002818BFFCF75CF8206844F6E0
:104280000002C4F20102002190420F911ED040F6BC
:104290000001C4F20001884230D0B0F1804F4FD10C
:1042A000002143F630000E91C4F20200026842F091
:1042B000010202600068012200F001000E900E98D9
:1042C0000F200F900020C4F2020030E043F63000CF
:1042D0000E91C4F20200026842F00202026000681D
:1042E000032200F002000E900E984FF400700F9021
:1042F0000020C4F2020000F5806018E000200E905B
:1043000043F63000C4F202000168022241F00801C5
:1043100001600068032100F008000E900E984FF431
:1043200070400F900020C4F2020000F540600223AC
:1043300010930023CDE911310FA91392FDF786FBED
:1043400014B010BDB0B590B040F6000540F2743026
:10435000C4F200050021C2F20000532242F20F73A2
:10436000CDE90811CDE90611CDE90411C0E90052EB
:10437000C0E9021301618161FEF7F4FB002818BF58
:10438000FBF7D8FF40F27430C2F2000008A9FEF734
:104390003FF8002818BFFBF7CDFF602001900020F8
:1043A00040F27434CDE902000420C2F2000405900A
:1043B00001A920460022FEF7C3FA002818BFFBF728
:1043C000B9FF20680422816921F00801816101A9F7
:1043D0002046FEF7B5FA002818BFFBF7ABFF2068B0
:1043E0000822816921F40061816101A92046FEF75C
:1043F000A7FA002818BFFBF79DFF20680C22C169AF
:1044000021F00801C16101A92046FEF799FA0028B0
:1044100018BFFBF78FFF206844F60002C169C4F2A1
:10442000010221F40061C161002190420B9119D079
:10443000A8422DD0B0F1804F49D1002143F6300081
:104440000A91C4F20200026842F0010202600068B0
:10445000012200F001000A900A980F200B9005F548
:10446000FC302BE043F630000A91C4F202000268EF
:1044700042F0020202600068032200F002000A908B
:104480000A984FF400700B9005F5FE3016E000BF5F
:1044900000200A9043F63000C4F2020001680222B4
:1044A00041F0080101600068032100F008000A9053
:1044B0000A984FF470400B9005F5013002230C93DD
:1044C0000023CDE90D310BA90F92FDF7BFFA10B013
:1044D000B0BD000080B540F2BC3041F20001C2F234
:1044E0000000C4F2010144F2402200234FF00C0C02
:1044F000C0F20F0280E80E00C0E90333C0E905C333
:10450000C361FFF7BFF8002808BF80BDBDE8804049
:10451000FBF710BF80B540F2304044F20041C2F2D8
:104520000000C4F2000100234FF0040C4FF4E1320C
:1045300080E80E00C0E90333C0E905C3C361FFF79B
:10454000A1F8002808BF80BDBDE88040FBF7F2BE9F
:1045500080B540F2A44041F20041C2F20000C4F232
:10456000010100234FF00C0C4FF4E13280E80E0003
:10457000C0E90333C0E905C3C361FFF783F800282E
:1045800008BF80BDBDE88040FBF7D4BEFEE7000059
:10459000FDF772FDFEE700000000000000000000D3
:1045A000EFF30980BFF36F8F154B1A681EF0100FE1
:1045B00008BF20ED108A20E9F04F10602DE90900B6
:1045C0004FF0500080F31188BFF34F8FBFF36F8F10
:1045D00004F0F2FA4FF0000080F31188BDE8090002
:1045E00019680868B0E8F04F1EF0100F08BFB0EC73
:1045F000108A80F30988BFF36F8F704700BF00BF38
:104600006400002000000000000000000000000026
:10461000074B19680868B0E8F04F80F30988BFF3CA
:104620006F8F4FF0000080F31188704700BF00BF0C
:1046300064000020012001F061FBFBE780B54EF231
:104640001000CEF20000006805F012FB012808BF40
:1046500080BDBDE8804004F0CFBB0000B0B592B093
:10466000002443F64000CDE90A44CDE9084405940E
:10467000CDE90344CDE901440094C4F2020001688D
:10468000022541F080510160006800F080500090E8
:10469000009847F200000094C4F20000016841F461
:1046A00080410160006800F4804000900098012083
:1046B00006904FF4803007904FF480000D90082052
:1046C0000E904FF4A870CDE90F050420119006A8B4
:1046D0000C95FDF7DFFC28B1EFF3108072B600BF38
:1046E000FEE700BF0F20CDE901054FF4A050CDE952
:1046F000040001A805210394FDF78AFB20B1EFF324
:10470000108072B6FEE700BFFDF732FC12B0B0BDFC
:104710004EF68850CEF20000016841F4700101604D
:104720007047000003F0FCB840F2E420C2F2000041
:10473000FEF74CB810B540F6FF3E0368C4F2000E19
:1047400040F2004C7045C4F2010C27DCB0F1804F00
:1047500031D040F20042C4F2000290422BD040F629
:104760000002C4F20002904225D041F6FF72C4F26A
:104770000002904229DC70453CDCB0F1804F5FD0F4
:1047800040F20042C4F20002904259D040F60002CA
:10479000C4F20002904253D056E000BF40F60042FF
:1047A000C4F20002904206D0604504D00022C4F258
:1047B00001029042D9D14A6823F07003134341F6B5
:1047C000FF72C4F200029042D5DD43F6FF72C4F2DC
:1047D0000102904222DC42F20002C4F20002904246
:1047E0002ED00022C4F20102904229D0604527D089
:1047F0002AE000BF40F60042C4F2000290421FD0FF
:1048000041F60002C4F20002904219D041F6004283
:10481000C4F20002904213D016E000BF44F200023E
:10482000C4F2010290420BD044F60002C4F201022D
:10483000904205D044F20042C4F20102904203D1FA
:10484000CA6823F44073134323F080024B69D1F804
:1048500000E08C681A430260C46240F48062C0F8D1
:1048600028E0624504BF096901630121416110BD6F
:1048700080B502F0FFFF002808BF80BDD0E900210D
:104880000846BDE880401047806B0021C185C18487
:10489000416D0847806B01684A6990F83D30212BD3
:1048A0002DD112F080022AD00021C184016851E884
:1048B000031F026821F0C00142E80313DBB1016865
:1048C00051E8031F026821F0C00142E8031393B1CD
:1048D000016851E8031F026821F0C00142E8031398
:1048E0004BB1016851E8031F026821F0C00142E8A2
:1048F0000313002BDAD1202180F83D1001684969AB
:1049000090F83E20222A40F07D8011F0400179D0BD
:104910000021C185016851E8031F026821F49071EC
:1049200042E80313BBB3016851E8031F026821F496
:10493000907142E8031373B3016851E8031F0268E2
:1049400021F4907142E803132BB3016851E8031F6F
:10495000026821F4907142E80313002BDAD11AE0C7
:10496000016851E8051F026821F0010142E80513C2
:10497000DBB1016851E8051F026821F0010142E83E
:10498000051393B1016851E8051F026821F0010188
:1049900042E805134BB1016851E8051F026821F098
:1049A000010142E80513002BDAD1016B012924D162
:1049B000016851E8031F026821F0100142E8031367
:1049C000DBB1016851E8031F026821F0100142E8E1
:1049D000031393B1016851E8031F026821F010012D
:1049E00042E803134BB1016851E8031F026821F04C
:1049F000100142E80313002BDAD1202180F83E1089
:104A000000210163016C426D41F010010164104707
:104A10000168806B0968C90500F19F800021C1858C
:104A2000016851E8031F026821F4807142E8031312
:104A3000E3B1016851E8031F026821F4807142E884
:104A400003139BB1016851E8031F026821F48071D0
:104A500042E8031353B1016851E8031F026821F4CF
:104A6000807142E80313002BDAD100BF016851E8DE
:104A7000051F026821F0010142E80513BBB301687C
:104A800051E8051F026821F0010142E8051373B3E4
:104A9000016851E8051F026821F0010142E8051391
:104AA0002BB3016851E8051F026821F0010142E8BB
:104AB0000513002BDAD11AE0016851E8051F0268DE
:104AC00021F0400142E80513DBB1016851E8051F00
:104AD000026821F0400142E8051393B1016851E8F2
:104AE000051F026821F0400142E805134BB101683F
:104AF00051E8051F026821F0400142E80513002B30
:104B0000DAD1202180F83E10016B012925D100BFA8
:104B1000016851E8031F026821F0100142E8031305
:104B2000DBB1016851E8031F026821F0100142E87F
:104B3000031393B1016851E8031F026821F01001CB
:104B400042E803134BB1016851E8031F026821F0EA
:104B5000100142E80313002BDAD1016B012903D1C4
:104B6000826E818D104700BF016D0847806B016B1D
:104B7000012903D1818D826E49081047C16C084715
:104B80000168806B0968C90550D40021C18400BF49
:104B9000016851E8051F026821F0800142E8051311
:104BA00083B3016851E8051F026821F0800142E8E3
:104BB00005133BB3016851E8051F026821F080012D
:104BC00042E80513F3B1016851E8051F026821F0BE
:104BD000800142E80513002BDAD113E0016851E8A7
:104BE000031F026841F0400142E80313002B08BF95
:104BF0007047016851E8031F026841F0400142E834
:104C0000031393B1016851E8031F026841F04001AA
:104C100042E803134BB1016851E8031F026841F0F9
:104C2000400142E80313002BD8D17047816C08473C
:104C3000806B416C0847000081B090F83E1022293B
:104C400021D183680246B3F5805F09D152F8281F4D
:104C500052F8183C002B63D003685B680AE000BF81
:104C600052F8281F13B90369002BF5D003685B685D
:104C700003F07F030B70116801311160C18D0139A0
:104C80000A04C18502D001B0704700BF0168CA683C
:104C900022F02002CA60CA6822F48072CA604A699F
:104CA00022F001024A61202180F83E10016B0129A7
:104CB0003ED10021016300BF016851E8031F026873
:104CC00021F0100142E80313DBB1016851E8031F32
:104CD000026821F0100142E8031393B1016851E822
:104CE000031F026821F0100142E803134BB1016871
:104CF00051E8031F026821F0100142E80313002B62
:104D0000DAD101680A68D20606D5002200920A6844
:104D10000092496800910099826E818D01B0104720
:104D2000026852686FF35F2221F8022B8162A5E7C7
:104D3000016D01B00847000010B504460068D4E9D1
:104D400002C22369016921F4405111430161626982
:104D500043EA0C01E3691143C268194349F20C6349
:104D60009A431143C1604169A26921F4407141F243
:104D70000043114340F48062C4F201039A4241614E
:104D800002D1FDF72FF901E0FDF718F9E169636839
:104D90001922B1F5004FA0FB020123D15A00DB0F0D
:104DA000FBF70EFA48F21F51C5F2EB11A0FB0123ED
:104DB0005A094FF69C73C0F6FF7303F1805302FB50
:104DC0000300322303EBC000A0FB01014FF4F87095
:104DD00000EA111000EB0210C1F3421108442168EF
:104DE000886010BD9A009B0FFBF7EAF948F21F514B
:104DF000C5F2EB11A0FB01235A094FF69C73C0F6D4
:104E0000FF7302FB0300322303EB0010A0FB010140
:104E1000F02000EA511000EB0210C1F343110844E6
:104E20002168886010BD000040F2BC30C2F2000072
:104E3000002180F83C10FEF781B9000002F004BEAA
:104E4000FEE7000000F02EFB00F034F900F0E8F976
:104E500002F0B6FD00F020FF40F29010C2F2000018
:104E6000006844F6B561C0F6000100F097F840F222
:104E70004000C2F200000068142101F057FA40F22D
:104E80004400C2F200000068142101F04FFA40F221
:104E90003C00C2F200000068142101F047FA01F062
:104EA000DFFA00BF42F2107000F028FFFAE70000BE
:104EB00070470000F0B583B002680C4605461CA0A0
:104EC0001146224605F08AF940F25416012CC2F22E
:104ED000000612D140F24810C2F2000000680A2118
:104EE00001220123012700F055FA30684FF47A714E
:104EF00032220123009700F0FFF8286802AA8DF8FB
:104F0000080040F23850C2F20100062102238DF859
:104F1000094001F0BDFD202C08D1306801274FF475
:104F2000FA6132223223009700F0E6F803B0F0BDB8
:104F30006B65795F69643A25642C206B65795F65E0
:104F400076656E743A25640D0A00000080B5002174
:104F500001714FF4C87244F6B16EC0E90211C0E9A4
:104F6000041118304FF4FA634FF4FA7CC0F6000EC7
:104F700080E80C5080BD000080B5006800281CBF90
:104F8000002080BD40F20040C4F202004FF40061F6
:104F9000FCF730FE80F0010080BD0000002918BF42
:104FA00041627047B0B504464069A26A0844606136
:104FB00020469047A16888421CBFA060B0BDE16850
:104FC000014325D02179E06002292BD0012937D077
:104FD000002955D1002841D0626A204601210125CF
:104FE0009047D4E90501884234D2206990B301305A
:104FF0000228206104D1626A20464021904720693E
:10500000032827D1626A20468021904722E000BF12
:10501000D4E90501884233D9206988B30020C4E966
:105020000400B0BD10B36069216A884298BFB0BD6A
:10503000626A20460421904700206061B0BD00BF35
:1050400000B36069E16988421AD9626A2046022188
:1050500002259047002060612571B0BDD4E90501AB
:1050600088420DD920690028D8D109E0626A20461B
:1050700008219047A06900210130C4E90410217182
:10508000B0BD00BF626A204610219047626A204688
:10509000202190472069002808BF012020610020BE
:1050A0002071B0BD40F29010C2F2000000681421DF
:1050B000FFF778BFB0B540F21001C2F20001002046
:1050C0002C22002400F08CFB40F29015C2F2000567
:1050D0002860FFF73BFF286844F67971C0F60001AD
:1050E000046081624FF49671183040F2DC524FF444
:1050F000C8730EC0B0BD000080B584B0DDF818C024
:10510000CDE90123026AADF800106946ADF80CC084
:10511000904704B080BD000003210171704700007A
:1051200044F62060814238BF0846092806D840F27C
:105130009C20C2F200000021FDF7EABD48F2A06108
:10514000C0F20101B1FBF0F14FF0FF3000EB510272
:1051500040F29C20C2F2000003680139D962C160AC
:1051600092B200215A63FDF749BD000070B5C269D3
:1051700000F10C050E4629460446904750B12079AF
:10518000022817D0012829D000283FD1206928B94A
:105190000EE000BF00202071206948B1298839B194
:1051A000626A20469047606920B30020A0602BE02F
:1051B000626A0EE0A068D4E90412304411448842C7
:1051C000A06038BF70BD401A218B626A0129A060BF
:1051D00012D1204600219047032016E0A0682169E3
:1051E00030448842A06011D3626A20460021904773
:1051F00002200AE0032008E0A18920469047208B86
:10520000002818BF013820830120207170BD0000E4
:1052100040F25010C2F2000040681421FFF7A6BF10
:10522000B0B540F20040C4F202004FF40071002219
:105230000024FCF7E5FC05201021002200F0E4FD2D
:1052400040F25015C2F2000540F210012860C2F28F
:1052500000010020282200F0C3FA6860FFF75CFF1D
:10526000686845F2813247F25963C0F60002C0F621
:105270000003C0E9072340F29C22C2F2000245F27B
:1052800021111268C0F60001046041625462106886
:1052900040F001001060B0BDB0B559B14A1E92B2E5
:1052A000032A4AF2E43201F0030CC0F6000205D2F0
:1052B00000211CE00021C8B2B0BD00BF21F0030EE8
:1052C0000021002310F8044BC9B2614010F8035CC0
:1052D000515C10F8024C6940515C10F8015C61406F
:1052E000515C04336940515C9CB27445EAD1BCF115
:1052F000000F10D00378BCF1010F81EA0301515C6B
:1053000009D04378BCF1020F81EA0301515C02D05D
:1053100080784840115CC8B2B0BD0000B0B540F222
:105320000002C2F20002914207D140F25815C2F2C7
:10533000000504462868072802D94FF0FF30B0BDA9
:10534000421C28440A2C2A60047118BF082A08D17C
:105350004FF60060291DC0F20200FAF7F1FF0020AD
:1053600028602046B0BD0000006840F24012C2F242
:10537000000252F820000022002300F001BD0000CE
:1053800040F25010C2F2000000680022002300F03A
:10539000F7BC000080B584B0CDE90112C26901A953
:1053A000ADF80C30904704B080BD000003210171BE
:1053B00070470000006801280CD0002818BF704713
:1053C00081F00100C2B20020C4F202004FF48071EB
:1053D000FCF716BC002081F00101C4F2020000F5C8
:1053E0008060CAB24FF48061FCF70ABCB0B5826934
:1053F0000D4600F10C010446904748B1207902287F
:1054000020D0012812D088BBE068226A28B928E0A1
:1054100000202071E068226A18B3204601219047DD
:10542000206908B30020A06001251EE0D4E9020134
:1054300028448842A06019D3226A20460021904760
:10544000022512E004F1080207CA114428448842E8
:10545000A06038BFB0BD401AA18A226A0129A060AD
:1054600006D120460021904703252571B0BD00BF1D
:105470002046012101259047A08A002818BF013845
:10548000A082F2E710B540F24014C2F20004A06816
:105490001421FFF7ABFFE0681421BDE81040FFF7CF
:1054A000A5BF00002DE9F04105200C2100220026B7
:1054B00000F0AAFC40F2401540F21004C2F20005D0
:1054C000C2F20004286000202146242200F088F95E
:1054D000A860FFF76BFFA86845F2B538066045F293
:1054E000693747F24166C0F60008C0F60007C0F60B
:1054F0000006C0E90676C0F8208005200C210022B5
:1055000000F082FC686000202146242200F068F947
:10551000E860FFF74BFFE86801210160C0E906760B
:10552000C0F82080BDE8F081F0B581B040F2185697
:10553000C2F20006002818BF064609B1B06818B1CB
:10554000002001B0F0BD00BF0C46D1E900100028DA
:1055500008BF00292AD0002700230025EA188A4224
:10556000EED804EBC702D2E90253002B08BF002D8E
:105570001ED00844A842E3D8D2E90410002808BF8E
:10558000002917D02B448B42DAD8D2E90653002BDE
:1055900008BF002D10D00844A842D1D8D2E9081085
:1055A00004370028DAD10029D8D106E0002704E02A
:1055B000013702E0023700E00337002FC0D006F1C8
:1055C0001405284600F048F90028B9D1284600F013
:1055D00025F90028B4D0012F07F0010C20D1BCF12F
:1055E000000F00F09280606820F007011029C0F0E1
:1055F0008C80236813F0070218BFC2F10802881AD2
:105600001028C0F08280B7681A44002F6CD019446B
:10561000002341F8083DB1604B6011603A606CE0D6
:1056200027F001014FF0000E16E000BF3844C6E934
:10563000005E40F808EDB060C0F804E02860A3F117
:1056400008006860D6E9032310445A1CC6E9030227
:10565000023904F11004C2D0606820F00707102F4F
:1056600026D3206810F0070518BFC5F108057B1B7D
:10567000102B1DD3B268054442B1384440F808ED00
:10568000B060C0F804E02860156008E03844C6E95E
:10569000005E40F808EDB060C0F804E02860A3F1B7
:1056A00008006860D6E9032310445A1CC6E90302C7
:1056B000E06820F00707102FCAD3A06810F0070594
:1056C00018BFC5F108057B1B102BC1D3B268054478
:1056D000002AABD0384440F808EDB060C0F804E0D0
:1056E00028601560ABE700BF00271944326041F81D
:1056F000087D7760B1604F60116008385060D6E96E
:1057000003120844511CC6E90301306901B0F0BD21
:1057100070B540F21856C2F20006002818BF0646BF
:1057200006F1140420460D4600F0A4F8002D18BF21
:10573000083D03D06868B0F1FF3F05DD2046BDE8B5
:10574000704000F08FB800BF29684BF6EF62CDF6CD
:10575000AD629142F2D120F0004CF06833466044D3
:10576000C5F804C0F060002BE8D01868A84211D238
:105770000028E3D00368AB4210D2002BDED01868BB
:10578000A84207D20028D9D00368AB421A46EAD310
:1057900005E000BF0246184601E000BF1A46436814
:1057A000C118A94203D19C440546C0F804C06AB19F
:1057B000536863B105EB0C01914208D1B1688A428C
:1057C00005D0126803EB0C01696000E00022A842DA
:1057D0002A6018BF05602046BDE8704000F042B85E
:1057E000F0B581B0064640F21850C2F20000002E1B
:1057F00008BF064606F11407384614460D4600F069
:1058000039F830462946224601F076FE04463846ED
:1058100000F028F8204601B0F0BD000010B584B0BB
:105820000949044608A00091C268D0E9011003921A
:10583000CDE90110684600F0AFFB2060002818BFDA
:10584000012004B010BD00BFADA60008000000009C
:1058500000000000000000000068002818BF0120C0
:105860007047000080B5006800F0D2FBB0FA80F00D
:10587000400980BD80B500684FF0FF3100F062FB49
:10588000B0FA80F0400980BD82B0C8B101684BF623
:10589000EF62CDF6AD62914212D1816944F21012ED
:1058A000C2F2521291420BD1416849B1816839B1BB
:1058B000D0E90302019200900198009A904203D12E
:1058C000002002B0704700BF0198009A904205D9AD
:1058D00001980099401A02B0704700BF0098019AE1
:1058E000081A104402B0704700284FF0000318BF98
:1058F000002901D118467047002AFBD000234361DC
:105900000361C3604BF6EF63CDF6AD63C0E90031D0
:1059100044F21011C2F252110123826081611846D3
:10592000704700002DE9F04184B0002868D005469A
:105930000E4600684BF6EF61CDF6AD6188425FD14F
:10594000A86944F21011C2F25211884258D1696814
:10595000002955D01446002A4FF0000018BF002E31
:1059600002D104B0BDE8F081AA68002AF9D0D5E9D7
:10597000030303930290039B029FBB4202D10023C7
:105980000CE000BF039B029FBB4203D9039B029F15
:10599000DB1B03E0029B039FD31A3B44A34238BFA7
:1059A0001C466CB3019001982746101AA0423CBFD8
:1059B0000198171A01983A4601443046FAF731FC2B
:1059C0000198BC423844019008D0A4EB07086968EC
:1059D000F0194246FAF725FCCDF804800198A96831
:1059E000884224BF0020019001986B69E8605BB198
:1059F0002846002122469847204604B0BDE8F081A1
:105A0000002004B0BDE8F081204604B0BDE8F0817C
:105A10002DE9F04184B0002868D005460E460068A4
:105A20004BF6EF61CDF6AD6188425FD1A86944F2D3
:105A30001011C2F25211884258D16968002955D01C
:105A40001446002A4FF0000018BF002E02D104B007
:105A5000BDE8F081AA68002AF9D0D5E903300390A7
:105A60000293039B029FBB4213460BD0029B039FF2
:105A7000BB4203D9029B039FDB1B03E0039B029FF6
:105A8000D31A3B44013BA34238BF1C4674B3019078
:105A900001982746101AA0423CBF0198171A019896
:105AA0003A4608443146FAF7BCFB0198BC423844F8
:105AB000019008D0A4EB07086868F1194246FAF78C
:105AC000B0FBCDF804800198A968884224BF00206B
:105AD000019001986B69286163B128460121224633
